:020000040800F2
:10000000A805002045010008C9270008F1080008DC
:100010005F2700089D040008913B000800000000D5
:100020000000000000000000000000002533000870
:10003000B104000800000000752C000869340008B5
:100040005F0100085F0100085F0100085F01000810
:100050005F0100085F0100085F0100085F01000800
:100060005F0100085F0100085F0100085F010008F0
:100070005F0100085F0100085F0100085F010008E0
:100080005F0100085F0100085F0100085F010008D0
:100090005F0100085F0100085F010008ED0400082F
:1000A0005F0100085F0100085F0100085F010008B0
:1000B0005F0100085F0100085F0100085F010008A0
:1000C0005F0100085F0100085F0100085F01000890
:1000D0005F0100085F0100085F0100085F01000880
:1000E0005F0100085F0100085F0100085F01000870
:1000F0005F0100085F0100085F0100085F01000860
:100100005F0100085F0100085F0100085F0100084F
:100110005F0100085F0100087D3500085F010008ED
:100120005F0100085F0100085F0100085F0100082F
:10013000DFF80CD000F044F900480047B53F000854
:10014000A80500200648804706480047FEE7FEE76E
:10015000FEE7FEE7FEE7FEE7FEE7FEE7FEE7FEE777
:100160006D34000831010008D2B201E000F8012B23
:10017000491EFBD270470022F6E710B513460A4627
:1001800004461946FFF7F0FF204610BD10B50022C7
:1001900000E0521C835C8C5CA34201D1002BF8D19F
:1001A000D8B2E1B2401A10BD2DE9F04D81EA030446
:1001B00004F0004B21F0004514464FF0000A23F0F4
:1001C000004150EA050220D054EA01021DD0C5F3D7
:1001D0000A570246C5F31303C1F31300C1F30A56CD
:1001E00040F4801543F48013A7EB0608101BD64695
:1001F00008F2FD3873EB050002D308F1010801E0B5
:1002000092185B41B8F1000F03DA00200146BDE807
:10021000F08D00204FF48011064684460EE0171B37
:1002200073EB050705D3121B63EB050306434CEA8A
:10023000010C49084FEA300092185B4150EA01076F
:10024000EDD152EA030012D082EA040083EA0501EC
:10025000084305D0101BAB4106D20122002306E063
:1002600000224FF0004302E06FF0010253101AEB3E
:1002700006004CEB085110EB0A0041EB0B01BDE806
:10028000F04D00F040B80EB5C10F80EAE0700844B0
:10029000CA07002140F233438DE80E000A460B46A0
:1002A00000F040F803B000BD70B5C1F30A5201F090
:1002B00000450024C1F3130140F2FF3341F48011E3
:1002C0009A4201DA002070BD40F233439A42A2F212
:1002D000334203DC524200F006F800E090402C4329
:1002E000F1D0404270BD202A04DB203A21FA02F00E
:1002F0000021704721FA02F3D040C2F12002914060
:1003000008431946704710B5141E73F1000408DA4B
:10031000401C41F1000192185B411A4301D120F0C9
:10032000010010BD2DE9F04D92469B4611B1B1FA86
:1003300081F202E0B0FA80F22032904600F052F8EA
:1003400004460F4640EA0A0041EA0B0153465A466A
:10035000084313D0114653EA010019D0C8F14002F6
:100360005046FFF7C0FF05460E46504659464246E6
:1003700000F038F8084305D0012004E02046394653
:10038000BDE8F08D0020054346EAE0762C43374374
:100390000A986305E40AA0EB08000022FD0A44EA7B
:1003A00047540A3002D500200146E9E7010510193B
:1003B0006941DDE9084500196941BDE8F04DA2E752
:1003C000064C074D06E0E06840F0010394E80700A2
:1003D00098471034AC42F6D3FFF7AEFE3C4100081C
:1003E0005C410008202A04DB203A00FA02F10020D8
:1003F00070479140C2F1200320FA03F31943904063
:10040000704730B58C1810F8012B12F00F0301D192
:1004100010F8013B120906D110F8012B03E010F887
:10042000015B01F8015B5B1EF9D101E001F8013BC2
:10043000521EFBD1A142E6D3002030BD10B54FF4CF
:100440008051094800F037FA4FF40051064800F097
:1004500034FA4FF48041044800F02DFA4FF4004183
:10046000014800F02AFA10BD000C014010B54FF40D
:100470008051094800F021FA4FF40051064800F07D
:100480001AFA4FF48041044800F017FA4FF4004183
:10049000014800F010FA10BD000C014000BFFEE75B
:1004A00010B50021014803F08FF810BD0010004086
:1004B0007047002109E0002201E0531C9AB242F685
:1004C00014039A42F9DB4B1C99B28142F3DB70476B
:1004D000002107E0002201E0531C9AB2092AFBDB4D
:1004E0004B1C99B28142F5DB7047000010B520200B
:1004F00000F038F800B31148007878B9102010499E
:10050000486108200F49086001200C490870082044
:100510000C49086010200A4908610AE00748007881
:10052000012806D108200749091D08600220034957
:100530000870202000F008F810BD000041010020E4
:10054000002001401014014001490860704700007C
:1005500014040140024909680143014A11607047CF
:1005600010040140014600200022074B1B6803EAEB
:100570000102054B14331B680B4013B10AB1012073
:1005800000E00020704700000004014000212349E2
:100590008279002A3AD00A46126803689A430B46C9
:1005A0001A600A1D126803689A430B1D1A600279CB
:1005B00011440A6803681A430A60184A083212682C
:1005C00003689A43154B08331A601A1D12680368B2
:1005D0009A43124B0C331A604279102A0ED11A1F1B
:1005E000126803681A430D4B08331A601A1D12680B
:1005F00003681A43094B0C331A600DE0074942792E
:1006000011440A6803681A430A6005E0027911443C
:100610000A6803689A430A607047000000040140BA
:1006200008B501214FF4DA7002F046FB10208DF876
:10063000030003208DF802000820ADF80000694691
:10064000194800F05BF81020ADF800006946174823
:1006500000F054F80420ADF800006946124800F09C
:100660004DF82020ADF800006946114800F046F82A
:100670000820ADF8000069460E4800F03FF8FF2062
:10068000ADF8000004208DF8030003208DF802006F
:100690006946094800F032F808200349143108601F
:1006A00004491031086008BD0008014000200140E5
:1006B0000010014000140140001C014030B5002230
:1006C0008B071C0F0F2303FA04F20B4B8C1053F80B
:1006D00024309343084C8D1044F8253023468C1069
:1006E00053F824308C07240F00FA04F42343024CFF
:1006F0008D1044F8253030BD080001402DE9F0414F
:10070000024600250026002000230024002791F83F
:1007100003C00CF00F0591F803C00CF0100CBCF1F5
:10072000000F03D091F802C04CEA050591F800C013
:10073000BCF1000F31D0146800202BE04FF0010C09
:100740000CFA00F3B1F800C00CEA03069E4220D177
:1007500083004FF00F0C0CFA03F7BC4305FA03FCBF
:100760004CEA040491F803C0BCF1280F06D14FF005
:10077000010C0CFA00FCC2F814C00AE091F803C0A6
:10078000BCF1480F05D14FF0010C0CFA00FCC2F887
:1007900010C0401C0828D1D31460B1F800C0BCF1CF
:1007A000FF0F34DD546800202EE000F1080C4FF0FC
:1007B000010808FA0CF3B1F800C00CEA03069E42E7
:1007C00021D183004FF00F0C0CFA03F7BC4305FA5C
:1007D00003FC4CEA040491F803C0BCF1280F05D1D6
:1007E00000F1080C08FA0CF8C2F8148091F803C064
:1007F000BCF1480F07D100F1080C4FF0010808FACE
:100800000CF8C2F81080401C0828CED35460BDE814
:10081000F0810000F0B50A460023002400210025E5
:1008200000F00046B6F1004F02D11D4EF16901E023
:100830001B4E7168C0F3034583B200F44016B6F551
:10084000401F08D121F07061154E766826F0706661
:10085000134F7E6012E000F48016B6F5801F06D1BB
:10086000032606FA05F4A14341F0706106E0460D47
:10087000360103FA06F6B14341F0706122B1460D2C
:10088000360103FA06F6314300F00046B6F1004F98
:1008900002D1034EF16101E0014E7160F0BD000034
:1008A000000001400246002093680B400BB101207C
:1008B00000E000207047416170470161704700000F
:1008C00010B500BF084800884FF47A7100FB01F4AE
:1008D000064802F079FF044400200449888432204D
:1008E000FFF7E7FD204610BD9400002000100040F7
:1008F00000BFFEE72DE9F05F4FF0000B0024A1469A
:10090000A2462DE040211F48FFF7D7FF1420FFF734
:10091000DFFD40211B48FFF7CEFF00BF80211948B3
:10092000FFF7C0FF0028F9D002F092F9641C00BF65
:1009300080211448FFF7B6FF0128F9D0FFF7B0FD7A
:10094000FFF7BEFF83465846FFF79DFC074600228F
:100950000D4BFFF729FC0546FFF7A6FC8146CA446C
:10096000052CCFD15046FFF78EFC05460022074BE1
:10097000FFF71AFC0746FFF797FC81464846BDE89B
:10098000F09F00000014014000004D4000001440A2
:100990001FB50121202002F08FF94020ADF80000A2
:1009A00003208DF8020010208DF8030069461E48D0
:1009B000FFF7A4FE40211C48FFF77DFF8020ADF823
:1009C000000004208DF8030069461748FFF796FEE3
:1009D00080211548FFF76FFF0121102002F04CF92C
:1009E000124802F0FDFD40F2E730ADF80800472064
:1009F000ADF804000020ADF80A00ADF8060001A92A
:100A00000A4802F0A7FF0121084802F0D7FD0122A1
:100A10001146064802F0ECFE03F0B8FA0021034844
:100A200002F0D2FD1FBD0000001401400010004084
:100A300010B503F0ABFAFFF7ABFF10BD2DE9F041A5
:100A4000ADF5227D074688464FF4207102A8FFF7D6
:100A500092FB002632E0002424E000BF0025202085
:100A600019494861194800684FF47F4101EA00259F
:100A7000202015490861486114480068C0B2054348
:100A80002020086100BFE8B200909DF8000002A994
:100A900001F81400280A01909DF8041002AA601CB5
:100AA000115484B2B4F5A07FD7DB002301224FF4A8
:100AB000207102A801F08EF8701C86B2F02ECADBFD
:100AC0000DF5227DBDE8F08100100140081C0140B9
:100AD00038B502F09DFF2FA003F08AF938A003F08B
:100AE00087F93CA003F084F900F0D4F83EA003F0AD
:100AF0007FF9FFF79DFF41A003F07AF901F04EFE68
:100B000001F030FE0A2002F0E1FC42A003F070F98F
:100B100046A003F06DF903F07BF801F0F8FE08E061
:100B20004748007828B947A003F062F901204449FA
:100B3000087001F0F5FE0128F2D14D49887B01F0E3
:100B4000B0FF4B49887A01F01FFF494991F90B002A
:100B500001F0B2FE464991F90C0001F079FE4449DA
:100B600091F90D0001F0BFFE4149887B01F099FF2A
:100B70003F4800783E4C00902389E288A188608835
:100B800001F0F1FF3BA003F033F900204049087069
:100B900038BD00000D0ABBB6D3ADCAB9D3C3D0EC83
:100BA000BCD1D0CBB5C4B1CFD2B5C9E8BCC62D57E6
:100BB000494649D6C7C4DCD0A1B3B50D0A00000030
:100BC0000D0ABDF8D0D0CFB5CDB3B3F5CABCBBAF1D
:100BD0000D0A00000D0AB4AEBFDAB3F5CABCBBAF54
:100BE000CDEAB3C90D0A00000D0A4C4544B3F5CA5D
:100BF000BCBBAFCDEAB3C90D0A0000000D0AB3AC0F
:100C0000C9F9B2A8B3F5CABCBBAFCDEAB3C90D0AE6
:100C1000000000000D0AB5E7BBFAC7FDB6AFB3F59B
:100C2000CABCBBAFCDEAB3C90D0A00000D0ABDF8BE
:100C3000D0D057494649C5E4D6C30D0A000000008C
:100C4000420100200D0AC3BBD3D0BCECB2E2B5BD5B
:100C50004F5637373235C9E3CFF1CDB7A3ACC7EB29
:100C6000BDD3CDA8C9E3CFF1CDB70D0A0000000078
:100C7000960000200D0A4F5637373235C9E3CFF1C1
:100C8000CDB7B3F5CABCBBAFCDEAB3C90D0A0000FE
:100C90004101002008B50121082002F00DF82020B4
:100CA000ADF8000010208DF8030003208DF802003D
:100CB00069460A48FFF722FD0121402001F0FCFFB0
:100CC0002020ADF8000010208DF8030003208DF8DF
:100CD000020069460248FFF711FD08BD000C014003
:100CE0000018014070B505460C4655B924B12021C5
:100CF0000948FFF7E0FD0EE020210748FFF7DDFD82
:100D000009E024B120210548FFF7D5FD03E02021AB
:100D10000248FFF7D2FD70BD000C014000180140F1
:100D200010B54FF480510948FFF7C7FD4FF400514B
:100D30000648FFF7C0FD4FF480410448FFF7BBFDB4
:100D40004FF400410148FFF7B8FD10BD000C014011
:100D500070B50446FFF7CEFD05464FF47A7095FB5B
:100D6000F0F0303020702078302800D120706420DE
:100D700095FBF0F00A2190FBF1F201FB12003030FC
:100D800060702078302803D16078302800D16070FE
:100D90000A2095FBF0F00A2190FBF1F201FB120012
:100DA0003030A0702078302806D16078302803D108
:100DB000A078302800D1A0700A2095FBF0F100FB4C
:100DC00011503030E07070BD08B50121042001F0F1
:100DD00073FF102010490860ADF800008DF8030083
:100DE00003208DF8020069460B481038FFF786FC97
:100DF0000121102001F060FF102008490861ADF8C2
:100E000000008DF8030003208DF8020069460348B6
:100E1000FFF774FC08BD00001008014000100140FD
:100E200010B5FFF7D1FF00F033F810BD30B5164C08
:100E3000A3681D6825F001051D60D8605A6020690F
:100E4000056825F001050560C1604260E2680F4950
:100E5000916061688A890A899207FCD5016841F02E
:100E600001010160196841F00101196061690A68B6
:100E70009202FCD5196821F001011960016821F086
:100E80000101016030BD00004401002000007D0F21
:100E900000B587B00121042001F00EFFE020ADF87D
:100EA000180018208DF81B0003208DF81A0006A9E1
:100EB0001C48FFF723FC01210846FFF7ABFC01218A
:100EC000080301F0F9FE0121080301F005FF0021EC
:100ED0004FF4805001F000FF0020ADF804004FF403
:100EE0008270ADF806000020ADF80800ADF80A00E9
:100EF000ADF80C004FF40070ADF80E001820ADF8FE
:100F000010000020ADF812000720ADF8140001A970
:100F1000054802F0FFF80121034802F0EFF807B09E
:100F200000BD000000080140003001402DE9F04103
:100F3000184C0D4660600AB100211180018801F053
:100F40003806018821F038010180018841F0100144
:100F50000180018821F0010101800F4F1146BD423F
:100F600001D3012000E0022001F0FBF900280ED09F
:100F70006068018821F038010180018831430180D7
:100F8000BD4203D3018841F0010101800120BDE889
:100F9000F081000044010020002D310110B504460D
:100FA000074800884FF6C771084005490880084681
:100FB0000088204308800121014802F09FF810BDFD
:100FC00000300140054949680A899207FCD5087339
:100FD00000BF00BF00BF00BF7047000044010020F9
:100FE000114908B549680A891206FCD40A8912F425
:100FF000C05FF8D10A89ADF80020520607D50A89EA
:10100000ADF800208A8900E08A898DF800200A89DD
:10101000D207F9D10A899207FCD508730889C0075D
:10102000FCD08889C0B208BD4401002018B110214D
:10103000034A116003E01021014A121D116070473C
:101040001008014018B11021034A116102E010217B
:10105000014A5161704700000010014010B504467C
:10106000204602F035FF10BD10B50020FFF7DEFF6F
:10107000012000F0F1F80020FFF7E4FF012000F06C
:10108000EBF80120FFF7DEFFC82000F0E5F80120B3
:10109000FFF7CCFF40F2562000F0DEF810BD000054
:1010A00010B594B0624C00201390FF2012900020E5
:1010B0000E900F90109011900490FFF7D5FF102024
:1010C000FFF76CFF5B4C012000F0C6F804AA214634
:1010D0005948FFF72BFFB8B915E000210846FFF784
:1010E00001FE00210120FFF7FDFDFA2000F0B4F819
:1010F00001210020FFF7F6FD01210846FFF7F2FD70
:10110000FA2000F0A9F8E8E701A800F0C5F9C8B98D
:1011100017E000210846FFF7E5FD00210120FFF759
:10112000E1FD4FF4FA7000F097F801210020FFF77D
:10113000D9FD01210846FFF7D5FD4FF4FA7000F004
:101140008BF8E6E73D480390039800F0C9F9029058
:10115000DDE9020188421ED2DDE90210401A0A28A8
:1011600019D917E000210846FFF7BCFD0021012036
:10117000FFF7B8FD4FF4FA7000F06EF8012100207F
:10118000FFF7B0FD01210846FFF7ACFD4FF4FA7000
:1011900000F062F8E6E704AA0021022000F0DEFD7C
:1011A00010B9002014B010BD04A913A800F0C2F8B3
:1011B00008B90020F6E79DF84C00012803D09DF8FF
:1011C0004C00032832D104A8142300221CA1009053
:1011D0001FA000F057FB08B90020E3E70A210EA882
:1011E00001F07AF908B90020DCE704AA40F638419A
:1011F000002002F05BF808B90020D3E704AA40F60B
:101200003841012002F052F808B90020CAE704A9C9
:1012100012A800F0C2F808B90020C3E704AA05A983
:1012200006A800F08CFC08B90020BBE70120B9E754
:10123000005A62024054890000300140A08601003B
:101240006A6961686577616E73686978696E67005D
:101250006A696178696E670070B5044600250AE026
:10126000002604E0FA20FFF7F9FE701C86B2042E77
:10127000F8DB681C85B2A542F2DB70BD1CB5049C8E
:10128000CDE9003413460A460146282000F0C5FE89
:101290001CBD2DE9F0418AB016460F4604461D00DC
:1012A0004FF0000801D0A5F80080184601F03CF985
:1012B00000283CD0072000F019FF012001F020F8A1
:1012C0001F208DF804008DF805808DF8060000239E
:1012D0001A46032101A8009500F098FF002826D0A7
:1012E0008CB19DF80600000220609DF807100844AC
:1012F000000220609DF808100844000220609DF85C
:1013000009100844206017B19DF80A0038706EB1CA
:10131000002001A904E00A18127A3254401C80B25D
:101320009DF80B208242F6D806F8008001200AB012
:10133000BDE8F08170B58AB005460C004FF000069C
:1013400000D02680084601F0EFF8002823D00720BF
:1013500000F0CCFE012000F0D3FF10208DF8040037
:1013600000208DF80560024601A98B5C521C1844D0
:1013700092B2C0B2022AF8D38DF8060000231A46B2
:10138000032101A8009400F041FF002803D09DF83C
:101390000600287001200AB070BD70B58AB00C46F6
:1013A0000546202101A8FEF7E6FE002604B12680AE
:1013B000204601F0B9F8002823D0072000F096FE5F
:1013C000012000F09DFF12208DF8040000208DF810
:1013D0000560024601A98B5C521C184492B2C0B24F
:1013E000022AF8D38DF8060000231A46032101A82B
:1013F000009400F00BFF002803D09DF80600287031
:1014000001200AB070BDF0B589B00F460646202114
:1014100001A8FEF7B0FE002507B13D80384601F077
:1014200083F800282BD0072000F060FE012000F098
:1014300067FF11208DF8040000218DF80550084643
:1014400001AC225C401C114480B2C9B20228F8D31E
:101450008DF8061000231A4603212046009700F05D
:10146000D5FE00280BD0002021188A7832548978C4
:1014700019B1401C80B20F28F6D3F573012009B0D2
:10148000F0BD10B500F02CFFFF2803D0C00601D539
:10149000012010BD002010BD70B5054600F020FFF2
:1014A000FF280FD000F01CFF60B10C4E0024305D0F
:1014B00000F048FE0520FFF7D1FD00F011FF315D7F
:1014C000814201D0002104E0641CA4B2062CEED3BA
:1014D000012105B12870084670BD0000E0400008F9
:1014E0001FB504460020029003901CE000F0DB00D2
:1014F00040F001008DF800009DF8000000F022FE91
:101500000520FFF7ABFD00F0EBFE8DF804009DF821
:1015100004009DF80010884202D10398401C0390FB
:101520000298401C0290A042E0D3412000F00AFE45
:10153000039804B010BD2DE9F04F89B00D46DDE9E8
:10154000126A834699461446202101A8149FFEF78B
:1015500012FE4FF000080FB1A7F80080384600F0E7
:10156000E3FF00284FD0072000F0C0FD012000F06D
:10157000C7FE14208DF8040001208DF805008DF8B9
:1015800006B00BF115008DF8070000231A46042160
:1015900001A8009700F03AFE002834D09DF807001B
:1015A00030B10DB185F8008064B384F8008029E083
:1015B00015B19DF80800287014B19DF8090020703D
:1015C000B9F1000F07D09DF80B009DF80A1000EB51
:1015D0000120A9F8000056B1002001A90A18127ACA
:1015E0003254401C80B21028F8D386F81080BAF12B
:1015F000000F07D09DF81E009DF81D1000EB012084
:10160000AAF80000012009B0BDE8F08F2DE9FF4FD6
:101610008BB04FF0000BDDE919691C9D0F46ADF84A
:1016200004B05C46DA460DB1A5F800B02946104674
:1016300001F034F800283AD000F0BDFF01208DF809
:10164000080002208DF80900380A8DF80A000021F0
:101650008DF80B70084602AA135C401C194480B236
:10166000C9B20428F8D38DF80C1000231A460521BE
:1016700002A8009500F0CAFD0028DCD09DF80A0001
:1016800020B335B100F02CFE4FF6FF7101EA0020C7
:1016900028809DF80A00FD2824D0FE2811D0FF28BC
:1016A00006D0002D03D0288840F02F002880C0E00D
:1016B0001DB1288840F022002880C820FFF7CEFC0A
:1016C000B7E01DB1288840F0230028809DF80C0069
:1016D0004FF6FF7101EA00209DF80D10084484B216
:1016E000BC4205D93C461DB1288840F02400288022
:1016F0009DF809009DF80B80042825D9B9F1000F49
:101700000CD09DF813004FF6FF7101EA0020A9F8F4
:1017100000009DF812100844A9F800005EB19DF881
:10172000160030709DF8170070709DF81800B070AA
:101730009DF81900F070052000F0D8FC0A20FFF792
:101740008DFCADF804B070E0A9F800B086F800B0E8
:1017500086F801B0584686F802B0EBE7052000F0A5
:10176000CFFD0520FFF77AFC284600F078FF68B926
:101770000AF1010000F0FF0ABAF1020F06D20520BB
:1017800000F0B4FC0520FFF769FC4EE035484FF04F
:10179000000A00780028BDF80400A4EB00000ED079
:1017A000202801DB202002E0BDF80400201AC1B28D
:1017B000BDF804200B98104400F0F6FC0DE0202842
:1017C00001DB202002E0BDF80400201AC1B2BDF800
:1017D00004200B98104400F0C5FCBDF80410084428
:1017E000ADF804000520FFF739FC062000F000FDED
:1017F000D8B1BDF80400A0421BD2BDF80400201AE5
:10180000202816DC00F0F3FB98B1BDF80400BDF809
:101810000420201AC1B20B98104400F0A3FCBDF8BC
:1018200004100844ADF8040003E0BDF80400A04231
:1018300094D3189808B180F800801B9800B10480F8
:10184000BDF80400A04203D0BDF80400ADF80400C8
:10185000BDF80400ADF80400BDF804000FB0BDE809
:10186000F08F00004401002030B587B000240A9DAD
:1018700000930194029405ABCDE90345FFF7C6FE42
:1018800007B030BD2DE9F04788B00E4680460025F0
:10189000994692462F46142101A8109CFEF76BFC36
:1018A0000021234601AA0846FFF7F3FC00280CD0CC
:1018B00054A101A802F044FB002809DC4B46524623
:1018C00031464046009400F0A1F808B0BDE8F0872A
:1018D00018F8050018B16D1CEDB2202DF8D31B2DA2
:1018E00002D31B3DEFB21B2500232A464146184672
:1018F0000094FFF7C3FC0028E7D06FB1092F01D98E
:10190000092200E03A46002308F11B011020009450
:10191000FFF7B4FC0028D8D0002215461746B05C6B
:1019200020B1521CD2B2402AF9D301E01B2A02D3C3
:101930001B3AD5B21B220023314601200094FFF749
:101940009DFC0028C1D0F5B11B2D03D31B3DEFB288
:101950001B2200E02A46002306F11B0120200094F0
:10196000FFF78CFC0028B0D06FB1092F01D90922F4
:1019700000E03A46002306F1360121200094FFF7EB
:101980007DFC0028A1D0002253461146FF20009480
:10199000FFF774FC002898D0A9F1010000254FF64C
:1019A000FF7800EB80071CE00026FA20FFF756FBCB
:1019B000FA20FFF753FBFA20FFF750FBFA20FFF75E
:1019C0004DFB761CB6B2C82EEFD3214606A8FFF712
:1019D000E4FC012803D19DF8180005280FD06D1CE8
:1019E000ADB2AF4201DD4545DED334B100F078FC45
:1019F00008EA002040F032002080002065E7012046
:101A000063E70000312E312E362D37002DE9F043EB
:101A10008BB00E46074699469046202101A8129C9D
:101A2000FEF7A9FB002504B12580204600F07CFDCF
:101A300000287FD0072000F059FB012000F060FC57
:101A400022208DF804001D208DF80500002001A93A
:101A500005E00B18401C80B29A700D2802D23A5C47
:101A6000002AF6D18DF81350002005E00B18401C19
:101A700080B21A740D2802D2325C002AF6D18DF899
:101A8000215000228DF8228010460B5C401C1A4425
:101A900080B2D2B21F28F8D38DF8232000231A4633
:101AA000202101A8009400F0B1FB002842D09DF84D
:101AB00006004FF6FF7630B1A9F10100002500EBDA
:101AC0008007B04627E094B300F00AFC06EA002045
:101AD00020809DF806108031084327E00026FA2078
:101AE000FFF7BCFAFA20FFF7B9FAFA20FFF7B6FAC7
:101AF000FA20FFF7B3FA761CB6B2C82EEFD3214610
:101B000009A8FFF74AFC012803D19DF82400052805
:101B100013D06D1CADB2AF4201DD4545DED334B10B
:101B200000F0DEFB08EA002040F03200208000E0F8
:101B300000E000200BB0BDE8F0830120FAE72DE9BA
:101B4000F0418AB0884606461746202101A8FEF7D4
:101B500012FB002507B13D80384600F0E5FC002867
:101B600035D0072000F0C2FA012000F0C9FB132095
:101B70008DF8040000218DF80550084601AC225C68
:101B8000401C114480B2C9B20228F8D38DF8061067
:101B900000231A4603212046009700F037FB002857
:101BA00015D09DF8061088F80010002008E02118D4
:101BB000CA783254C97841B1401C80B21B2804D283
:101BC0009DF80510891E8142F1DC355401200AB0D0
:101BD000BDE8F0812DE9F0434FF0000689B0904652
:101BE0000D4681461C00374600D02780184600F07D
:101BF0009BFC00283FD000F008FD8DF80470032006
:101C00008DF80500280A8DF806808DF80700002160
:101C10008DF80850084601AA135C401C194480B294
:101C2000C9B20528F8D38DF8091000231A460621F9
:101C300001A8009400F0EAFA002875D09DF806008B
:101C400078B334B100F04CFB4FF6FF7101EA00208D
:101C500020809DF80600FB38052823D2DFE800F03D
:101C60001C17110C03001CB1208840F012002080CA
:101C7000C820FFF7F3F957E08CB3208840F0130039
:101C800003E064B3208840F0140020804CE034B3BB
:101C9000208840F01500F8E70CB3208840F01800C9
:101CA000F3E704E0DCB1208840F01F00EDE70A20F4
:101CB000FFF7D4F900273E4634E0A81B202801DDB9
:101CC000202000E080B28046234808F0FF01007821
:101CD000002809EB060003D000F09CFB02E023E0A3
:101CE00000F0BCFB0220FFF7B9F9204600F0F8FC39
:101CF00078B97F1CFFB2022F62B603D20220FFF731
:101D0000ADF90FE0B8F1080F03D2208800F47F404E
:101D1000208062B60027204600F001FD20B106EBCE
:101D2000080086B2AE42C8D3022000F0E9FAAE4203
:101D30000ED3B5F5807F0BD8FA2D01D30A2005E02C
:101D40001420FFF78BF9C5F1FF00C0B2FFF786F949
:101D500009B03046BDE8F0834401002070B58AB078
:101D60000D460646140001D000202080104600F0E9
:101D7000DBFB002837D0072000F0B8F9012000F085
:101D8000BFFA15208DF8040002208DF805008DF8AB
:101D9000066000208DF80750014601AA535C491CDB
:101DA000184489B2C0B20429F8D38DF80800002382
:101DB0001A46052101A8009400F028FA002812D044
:101DC0000024FA20FFF74AF9FA20FFF747F9FA2032
:101DD000FFF744F9FA20FFF741F9641CA4B2142C70
:101DE000EFD39DF806000AB070BD00002DE9F04F5A
:101DF00095B00026DDE91FB499461746884605468A
:101E00000B960C960D960E9604B126800021234663
:101E10000FAA0846FFF73DFA00287BD06CA10FA857
:101E200002F08EF80DF12C0A00280BDA0020514642
:101E30003A5C0A543A5C1AB1401C80B21028F7D3BD
:101E40000E5407E023465A463946504601F080F9C1
:101E500000285FD0204600F067FB00285AD00720FA
:101E600000F044F9012000F04BFA18208DF80C0026
:101E700016208DF80D008DF80E504FEA18208DF8C1
:101E80000F008DF81080002003A9524606E0DFB253
:101E90000B18401C80B25F71102802D2135C002B1B
:101EA000F5D1401D80B2B24604E000BF01F800A0A9
:101EB000401C80B21528F9D34FEA19208DF8210073
:101EC0008DF822901E988DF82300002210460B5C9E
:101ED000401C1A4480B2D2B21828F8D38DF82420BE
:101EE00000231A46192103A8009400F08FF9002856
:101EF0005AD09DF80E004FF6FF7660B1F4B300F0B3
:101F0000EFF906EA002020809DF80E10C1F1800153
:101F1000084346E048E095B3022D44D0012D54D14A
:101F200000250BEB8B0844E08DF850A0FA20FFF75A
:101F300095F8FA20FFF792F8FA20FFF78FF8FA20C9
:101F4000FFF78CF80127FA20FFF788F8FA20FFF74F
:101F500085F8FA20FFF782F8FA20FFF77FF87F1C58
:101F6000C82FF0DBCDF800A0CDE901A4002314AA0E
:101F700019461E98FFF7DFFAC8B101E025E012E02C
:101F80009DF85000072812D2DFE800F00411110D6F
:101F900011110400CCB100F0A3F906EA002040F0D2
:101FA0003300208011E0012015B0BDE8F08F6D1CDA
:101FB000ADB2A84501D9B542B6D334B100F090F91D
:101FC00006EA002040F03400EBE70020ECE70000D8
:101FD000312E312E362D330010B500F081F9FF2857
:101FE00003D0000601D5012010BD002010BD10B5A2
:101FF00000F076F9002802D0800601D4012010BD3F
:10200000002010BD10B500F06BF9FF2803D0C00709
:1020100000D0012010BD002010BD2DE9F04389B093
:102020000D46DDE9109406461F469046202101A882
:10203000FEF7A1F80CB100202080204600F074FAD1
:10204000002840D0072000F051F8012000F058F996
:102050001B2F00D91B278DF80460B81C8DF80500D4
:102060008DF806908DF80750002001AA07E018F8B7
:1020700000101318401C80B219711B2801D2B842FD
:10208000F5D300219DF805000B46801C04E0D75CC9
:102090005B1C3944C9B29BB29842F8D8D1544FF472
:1020A0007A72282E02D1FF2D00D00A225B1CD9B2F1
:1020B000002301A8009400F0A9F8002803D09DF89F
:1020C000060018B1012009B0BDE8F0835CB100F052
:1020D00007F94FF6FF7101EA002020809DF80610F5
:1020E0008031084320800020EDE700002DE9F04119
:1020F000044600F0F5F80127A740054620EA07014D
:10210000A9421DD000264FF47A7800BF00F0E8F80D
:102110000446A84207D005460220FEF79FFF761C22
:10212000B6B24645F2D324EA0700A04208D020F018
:10213000040000F007F8BDE8F0410520FEF78EBF6F
:10214000BDE8F08110B504460020FEF76FFF0120C6
:10215000FEF738FF2046FEF743FFBDE810400120A0
:10216000FEF764BF70B50D0006460DD0202D00D9D6
:1021700020250020FEF75AFF0320FEF723FF002052
:10218000FEF72EFF002407E0002070BD0020FEF7C0
:1021900027FF3055641CE4B2AC42F7D30120FEF7B0
:1021A00045FF284670BD000070B50C460646202944
:1021B00000D920240D4D0320287000206870FEF700
:1021C00035FFA21C05F122012846FEF72FFE012053
:1021D000FEF72CFF002005E0291891F82410315457
:1021E000401CC0B2A042F7D3204670BD6001002061
:1021F00010B5044600F074F8FF2805D00121A14075
:10220000014201D0012010BD002010BD2DE9F04198
:102210001F461546044690F80080069E00F0D4F84C
:102220000A2009E0FA20FEF719FFFA20FEF716FF50
:10223000FA20FEF713FFFA20FEF710FF6D1EADB275
:10224000F0D2304600F06BFA002845D04FF47A7097
:1022500047434CF25030B7FBF0F700257F1C05E0F8
:10226000304600F082F918B96D1CADB2BD42F7D30B
:10227000BD4230D220212046FFF774FF0A20FEF72E
:10228000EDFE0720FFF732FF0022617810468B1C1D
:1022900004E0255C401C2A44D2B280B29842F8D3B4
:1022A00060184FF6FF758078904207D09EB100F01D
:1022B00017F805EA002040F030000BE0207820F00D
:1022C000800141450AD036B100F00AF805EA002045
:1022D00040F0310030800020BDE8F0810120FBE7B4
:1022E00010B50020FEF7A2FE0420FEF76BFE0020D2
:1022F000FEF776FE04460120FEF798FE204610BD4C
:102300002DE9F0478046FFF7EBFF0127054607FA66
:1023100008F747EA0500C1B2A94220D000264FF4D1
:102320007A7900BFFFF7DCFF0446A84207D00546D4
:102330000220FEF793FE761CB6B24E45F2D3274339
:10234000F8B2A0420BD0B8F1020F01D020F0040087
:10235000FFF7F8FEBDE8F0470520FEF77FBEBDE8B9
:10236000F08730B589B005460C0001D000202080F0
:10237000084600F0D9F8002823D00720FFF7B6FE62
:102380000120FFF7BDFF42208DF8040001208DF8E9
:10239000050000208DF80650024601A98B5C521CF6
:1023A000184492B2C0B2032AF8D38DF80700002374
:1023B0001A46042101A80094FFF728FF002800D046
:1023C000012009B030BD000070B50C0005461ED0DC
:1023D000202C00D320240020FEF728FE0220FEF748
:1023E000F1FD0020FEF7EEFD002304E0E85CFEF7BF
:1023F000E9FD5B1CDBB2A342F8D3054840680189C4
:102400000906FCD4BDE870400120FEF70FBE70BD88
:102410004401002070B50C46202900D320240E4929
:1024200002220A7000224A70134604E0C25CCD18F2
:102430005B1CAA70DBB2A342F8D30020FEF7F6FDC6
:102440000549A21C22310448FEF7F0FCBDE87040AB
:102450000120FEF7EBBD00006001002070B50C000C
:1024600005461FD0202C00D320240020FEF7DEFDDF
:102470000220FEF7A7FD0020FEF7A4FD002304E0E4
:10248000E85CFEF79FFD5B1CDBB2A342F8D3064875
:10249000406801890906FCD4BDE8704072B601208D
:1024A000FEF7C4BD70BD00004401002010B5FFF769
:1024B00017FFFF2801D0800701D5002010BD0120A3
:1024C00010BD10B5FFF70CFFFF2803D0800701D522
:1024D000012010BD002010BDF8B506460C460020B6
:1024E0000090002512E069463046FEF78CFF012877
:1024F00005D10BA13046FDF749FE00B108E04FF4CD
:102500007A70FEF7A9FE00BF681C85B2AC42EADC17
:1025100000BFAC4201DC0020F8BD0120FCE7000058
:10252000302E302E302E30002DE9F04105460024AB
:1025300046F2A8174FF6FF76FFF764FD10B10120B1
:10254000BDE8F0810220FEF789FD641CA4B2BC4204
:1025500001D2B442F0D335B1FFF7C2FE06EA002043
:1025600040F0100028800020EAE72DE9F041054600
:10257000002446F2A8174FF6FF76FFF72DFD10B1A5
:102580000120BDE8F0810220FEF768FD641CA4B2C2
:10259000BC4201D2B442F0D35DB1FFF7A1FE06EA1E
:1025A000002028800220FEF759FD288840F0160000
:1025B00028800020E5E72DE9F041FFF791FE054670
:1025C00020F0A00040F00201A9421CD000264FF4E8
:1025D0007A77FFF785FE0446A84207D00546022019
:1025E000FEF73CFD761CB6B2BE42F2D324F0A0004A
:1025F00040F00200A04206D0FFF7A4FDBDE8F04184
:102600000520FEF72BBDBDE8F0812DE9F041FFF775
:1026100067FE054620F0840040F00201A9421CD06C
:1026200000264FF47A77FFF75BFE0446A84207D0F6
:1026300005460220FEF712FD761CB6B2BE42F2D36A
:1026400024F0840040F00200A04206D0FFF77AFD9B
:10265000BDE8F0410520FEF701BDBDE8F08170B591
:102660000546002446F2A8160AE0FFF7C0FC08B1B0
:10267000012070BD0220FEF7F1FC641CB44201D2BF
:10268000601CF2D145B1FFF72BFE4FF6FF7101EA56
:10269000002040F020002880002070BD70B5054665
:1026A00000244FF47A700E46454308E0FEF7E9FE39
:1026B00008B1012070BD0220FEF7D0FC641CB4EB11
:1026C000550F01D2601CF1D146B1FFF709FE4FF65C
:1026D000FF7101EA002040F010003080002070BD42
:1026E00070B5054600246FF00F0600BFFFF7E9FE46
:1026F00008B1012070BD0220FEF7B0FC641C052C5F
:1027000001D2B442F2D345B1FFF7EAFD4FF6FF71B3
:1027100001EA002040F017002880002070BD2DE95C
:10272000F0410546002446F2A8174FF6FF76FFF762
:10273000BDFE10B10120BDE8F0810220FEF78EFC45
:10274000641CBC4201D2B442F1D335B1FFF7C8FDDD
:1027500006EA002040F0110028800020EBE700BFCF
:10276000FEE7000008B50121082000F0A5FA0320CB
:10277000ADF800008DF8020010208DF803006946C6
:102780000548FDF7BBFF01210348FEF796F802213B
:102790000148FEF792F808BD000C014008B5012180
:1027A000082000F089FA4FF47040ADF800000320D3
:1027B0008DF8020010208DF8030069460148FDF7EE
:1027C0009DFF08BD000C01407047000070B500215E
:1027D00000230F22C47804B3154C246804F4E06489
:1027E000C4F5E064210AC1F10403CA40447804FA44
:1027F00003F184781440214309010E4C0678A15559
:10280000047804F01F050124AC4005786D11AD007B
:1028100005F1E025C5F8004109E0047804F01F0542
:102820000124AC40044D0678761145F8264070BD71
:102830000CED00E000E400E080E100E0024901432B
:10284000024A1160704700000000FA050CED00E03C
:1028500070B50646301D092821D2DFE800F01D1AA8
:102860001714110E0B080500482406251AE0382419
:10287000062517E02824062514E01824062511E073
:10288000082406250EE008240E250BE018240E254A
:1028900008E028240E2505E038240E2502E000BFBC
:1028A00000BF00BF00BF21469B2000F0FFFB294670
:1028B000AB2000F0FBFB70BD10B5044614F1040F13
:1028C0000EDB042C0CDC201D0007010EA72000F0FD
:1028D000EDFB201D0007010EA82000F0E7FB01E042
:1028E00000BF00BF10BD10B5044614F1040F0BDB90
:1028F000042C09DCC4F104003022A2EB8000C1B238
:102900009C2000F0D3FB01E000BF00BF10BD10B55C
:1029100000F090FAFDF784FE01F03CF910BD0000D4
:1029200038B50024002000908021122000F0BEFB6A
:1029300008B9002038BD0B220121684600F0B6FA24
:1029400008B90020F6E79DF80000212814D10024E2
:102950000DE00B4A02EB44025178094A12F81400C8
:1029600000F0A4FB08B90020E4E7601C84B205482D
:1029700000788442EDDB01E00020DBE70120D9E7AD
:10298000A60000204001002010B50446062C79D294
:10299000DFE804F003142D465F79FF21132000F0D7
:1029A00085FB65210E2000F081FB00212D2000F029
:1029B0007DFB00212E2000F079FB70E0FD2113202B
:1029C00000F074FB5A21012000F070FB5C21022012
:1029D00000F06CFB65210E2000F068FB00212D202B
:1029E00000F064FB00212E2000F060FB57E0FD2189
:1029F000132000F05BFB5821012000F057FB602101
:102A0000022000F053FB65210E2000F04FFB002157
:102A10002D2000F04BFB00212E2000F047FB3EE074
:102A2000FD21132000F042FB8421012000F03EFB39
:102A30004C21022000F03AFB65210E2000F036FB0D
:102A400000212D2000F032FB00212E2000F02EFB73
:102A500025E0FD21132000F029FB9621012000F044
:102A600025FB4021022000F021FB65210E2000F013
:102A70001DFB00212D2000F019FB00212E2000F06D
:102A800015FB0CE008E0FF21132000F00FFBE5210F
:102A90000E2000F00BFB02E000BF00BF00BF00BF34
:102AA00010BD10B50446072C58D2DFE804F004111D
:102AB0001E2B384552000621A62000F0F7FA80218F
:102AC000602000F0F3FA8021612000F0EFFA48E086
:102AD0002621A62000F0EAFA8021602000F0E6FA24
:102AE0008021612000F0E2FA3BE01E21A62000F0E8
:102AF000DDFAA021602000F0D9FA4021612000F029
:102B0000D5FA2EE01E21A62000F0D0FA4021602048
:102B100000F0CCFAA021612000F0C8FA21E01E21CB
:102B2000A62000F0C3FA8021602000F0BFFAC02187
:102B3000612000F0BBFA14E01E21A62000F0B6FAD6
:102B40006021084600F0B2FA6021612000F0AEFA80
:102B500007E04621A62000F0A9FA02E000BF00BF6E
:102B600000BF00BF10BD2DE9F84306460F461446CE
:102B70001D46DDF82080B8F1000F04D14621122057
:102B800000F094FA03E00621122000F08FFA1722D9
:102B90000121684600F08AF99DF8000000EBA600CC
:102BA00000F0FF094946172000F080FAC4F38701BE
:102BB000182000F07BFA19220121684600F076F90E
:102BC0009DF8000000EB670000F0FF09494619205E
:102BD00000F06CFAC5F347011A2000F067FA3222C0
:102BE0000121684600F062F904F003009DF800102E
:102BF000084305F0010140EA810006F0030140EAC4
:102C0000011007F0010140EA81194946322000F025
:102C10004DFAC4F38701292000F048FAC5F34701B3
:102C20002C2000F043FA2A220121684600F03EF9E8
:102C300004F003009DF80010084305F0010140EA8C
:102C4000810949462A2000F031FABDE8F8830000E6
:102C500010B50021054800F07AFE002004490880E4
:102C60000121024800F0B0FC10BD0000001000403F
:102C7000940000207047000029B1064AD26902433F
:102C8000044BDA6104E0034AD2698243014BDA6102
:102C9000704700000010024029B1064A1269024341
:102CA000044B1A6104E0034A12698243014B1A6122
:102CB000704700000010024029B1064A92690243A1
:102CC000044B9A6104E0034A92698243014B9A6182
:102CD000704700000010024029B1064AD268024342
:102CE000044BDA6004E0034AD2688243014BDA60A5
:102CF000704700000010024030B50021002200247F
:102D000000232D4D6D6805F00C0121B1042905D07B
:102D1000082923D105E0294D056022E0274D0560F3
:102D20001FE0254D6D6805F47012234D6D6805F4A4
:102D30008034022505EB92421CB9214D55430560B4
:102D40000BE01D4D6D6805F400351DB11C4D55435C
:102D5000056002E0194D5543056002E0174D05601E
:102D600000BF00BF144D6D6805F0F0010909154D55
:102D70006B5C0568DD4045600F4D6D6805F4E061F2
:102D8000090A104D6B5C4568DD4085600A4D6D6831
:102D900005F46051C90A0B4D6B5C4568DD40C560A8
:102DA000054D6D6805F44041890B074D6B5CC568A6
:102DB000B5FBF3F5056130BD0010024000127A004A
:102DC00000093D00140000202400002010B54FF43D
:102DD00080510948FDF76FFD4FF400510648FDF79B
:102DE0006CFD4FF480410448FDF767FD4FF400414E
:102DF0000148FDF760FD10BD000C014010B54021F9
:102E00000B48FDF758FD00F071F980210848FDF7E7
:102E100052FD00F06BF940210548FDF74EFD00F032
:102E200065F940210248FDF746FD00F05FF910BD4D
:102E30000010014008B501211020FFF73DFF4020A0
:102E4000ADF8000003208DF8020014208DF8030077
:102E500069460748FDF752FC01211020FFF72CFFBF
:102E60008020ADF8000069460148FDF747FC08BD29
:102E70000010014010B540210B48FDF71CFD00F08B
:102E800035F980210848FDF718FD00F02FF94021A1
:102E90000548FDF712FD00F029F940210248FDF731
:102EA0000AFD00F023F910BD0010014070B5054681
:102EB0000C46164600F08EF808B9002070BD42207E
:102EC00000F05CF800F0CCF818B900F0ADF8002084
:102ED000F4E7304600F052F800F0C2F800F0A4F831
:102EE00000F078F808B90020E8E7432000F046F841
:102EF00000F0B6F818B900F097F80020DEE70CE013
:102F000000F012F82870012C02D1FFF7B3FF01E0A6
:102F1000FFF774FF6D1C601E84B2002CF0D100F02E
:102F200083F80120CAE7000070B50825002480213D
:102F30001148FDF7C2FC14E06006040E40210E4863
:102F4000FDF7B9FC00F0D2F840210B48FDF7B5FCC5
:102F500000F0CCF880210848FDF7A4FC08B144F04B
:102F600001042800A5F10101CDB2E5D140210248BC
:102F7000FDF7A1FC204670BD0010014070B504466D
:102F800008251BE040211248FDF795FC00F0AEF843
:102F900004F0800020B180210D48FDF78EFC03E095
:102FA00080210B48FDF787FC6006040E00F09EF8B8
:102FB00040210748FDF781FC00F098F82800A5F1B2
:102FC0000101CDB2DED140210148FDF774FC70BD96
:102FD0000010014010B580211248FDF76EFC402121
:102FE0001048FDF76AFC00F081F880210D48FDF7DC
:102FF00059FC08B9002010BD80210A48FDF75BFC90
:1030000000F074F880210748FDF74CFC08B100205F
:10301000F1E780210348FDF74EFC00F067F801203E
:10302000E9E700000010014010B540210B48FDF712
:1030300042FC00F05BF880210848FDF73CFC00F002
:1030400055F840210548FDF738FC00F04FF8802185
:103050000248FDF732FC00F049F810BD00100140B5
:1030600010B540211048FDF726FC00F03FF8802104
:103070000D48FDF722FC00F039F840210A48FDF721
:103080001CFC00F033F880210748FDF70BFC28B149
:1030900040210548FDF70FFC002010BD40210248EB
:1030A000FDF709FC0120F8E70010014070B5044667
:1030B0000D46FFF78FFF08B9002070BD4220FFF7D3
:1030C0005DFFFFF7CDFF18B9FFF7AEFF0020F4E773
:1030D000E0B2FFF753FFFFF7C3FF2846FFF74EFFAD
:1030E000FFF7BEFFFFF7A0FF0120E6E74FF4C8702F
:1030F00001E0411E88B20028FBD1704721B102884F
:1031000042F04002028004E002884FF6BF731A408A
:103110000280704710B50022028802F441520B88E9
:103120004C8823438C882343CC8823430C89234336
:103130004C8923438C892343CC8923431A4302803F
:10314000838B4FF2FF74234083830B8A038210BD6D
:103150002DE9F0438DB0884606461C4617462021CF
:1031600001A8FDF708F84FF000090CB1A4F8009091
:103170004AA109AD0FC985E80F0000200DF1240117
:1031800018F900200B569A4204D1401C80B2102836
:10319000F6D301E010280AD300200A5C3254401C08
:1031A00080B21028F9D901200DB0BDE8F083204687
:1031B000FFF7BAF90028F7D00720FEF797FF0120A4
:1031C000FFF79EF825208DF804008DF8067000208A
:1031D0000DF104052A1818F80010D17018F8001025
:1031E00019B1401C80B21C28F4D32A18811C82F823
:1031F000039000228DF80510C8461146001D04E01A
:103200006B5C491C1A44D2B289B28142F8D36A5429
:1032100000941E2F00D91E2707EB4700C0EBC710F4
:103220004FF6FF7707EAC0039DF805000022C01C97
:10323000C1B22846FEF7EAFF0028B5D09DF8060087
:10324000C8B14CB3FFF74CF807EA002020809DF886
:103250000610FD291DD0FE2918D0FF2913D040F0FB
:103260003D0018E02918CA783254C97841B1401C91
:1032700080B2102804D29DF80510891E8142F1DC2D
:1032800006F800808FE740F03A0004E040F03B0091
:1032900001E040F03C002080002085E73235352EEB
:1032A0003235352E3235352E3235350070B58AB08F
:1032B0000D460646140001D0002020801046FFF77E
:1032C00033F900282CD00720FEF710FF0120FFF76C
:1032D00017F850208DF8040003208DF805008DF8B4
:1032E0000660280A8DF8070000208DF80850014676
:1032F00001AA535C491C184489B2C0B20529F8D30D
:103300008DF8090000231A46062101A80094FEF753
:103310007DFF002804D09DF80600002800D0012081
:103320000AB070BD704710B500F002F810BD000083
:103330000CB50020019000903348006840F48030C4
:103340003149086000BF3048006800F40030009048
:103350000198401C0190009818B90198B0F5A06F31
:10336000F1D12948006800F4003010B1012000902C
:1033700001E0002000900098012843D12348006814
:1033800040F01000214908600846006820F0030062
:1033900008600846006840F0020008601A4840686B
:1033A000194948600846406848600846406840F44B
:1033B000806048600846406820F47C1048600846F9
:1033C000406840F4E81048600846006840F08070AB
:1033D000086000BF0C48006800F000700028F9D0B9
:1033E0000948406820F003000749486008464068E3
:1033F00040F00200486000BF0348406800F00C0045
:103400000828F9D10CBD0000001002400020024045
:1034100010B54FF480510948FDF74FFA4FF40051B1
:103420000648FDF74AFA4FF480410448FDF745FA93
:103430004FF400410148FDF740FA10BD000C014077
:10344000042808D14FF0E021096941F004014FF050
:10345000E022116107E04FF0E021096921F0040149
:103460004FF0E022116170477047000010B513481B
:10347000006840F0010011490860084640681049A2
:1034800008400E494860084600680E4908400B494C
:1034900008600846006820F48020086008464068FC
:1034A00020F4FE0048604FF41F008860FFF73BFFE8
:1034B0004FF000600449086010BD00000010024099
:1034C0000000FFF8FFFFF6FE08ED00E010B588B041
:1034D000044601210220FFF7CFFB01210820FFF75E
:1034E000EBFB0920ADF8180041F61F40ADF81400C1
:1034F0000020ADF81A00ADF8160005A91D4800F02F
:1035000029FA0320ADF810008DF8120018208DF86C
:10351000130004A91848FDF7F1F86020ADF8000089
:103520000120ADF80200A0B2ADF806000020ADF811
:10353000080069460F4800F065F908210D4800F0C1
:10354000B1F90120ADF80200A0B2ADF8060069465D
:10355000084800F0B1F90821064800F0EBF9012114
:10356000044800F01FF80121024800F02DF808B0CF
:1035700010BD000000040040000C014010B5012106
:10358000064800F024F940B10121044800F019F880
:1035900003480088401C0249088010BD001000400C
:1035A0009400002021B1028842F08002028004E0F1
:1035B00002884FF67F731A4002807047CA43028226
:1035C0007047CA430282704721B1028842F001026B
:1035D000028004E002884FF6FE731A4002807047B2
:1035E00010B504466848844208D10121C014FFF791
:1035F00073FB0021E014FFF76FFBC4E0B4F1804FD0
:1036000008D101210846FFF747FB00210120FFF701
:1036100043FBB8E05D48844208D101210220FFF756
:103620003BFB00210220FFF737FBACE05848844207
:1036300008D101210420FFF72FFB00210420FFF710
:103640002BFBA0E05348844208D101210820FFF75A
:1036500023FB00210820FFF71FFB94E04E48844223
:1036600008D101211020FFF717FB00211020FFF7E0
:1036700013FB88E04948844208D101212020FFF74C
:103680000BFB00212020FFF707FB7CE0444884422D
:1036900008D101214014FFF71FFB00216014FFF740
:1036A0001BFB70E03F48844209D10121C804FFF7A9
:1036B00013FB00214FF40020FFF70EFB63E03A48B4
:1036C000844209D101210805FFF706FB00214FF4D0
:1036D0008010FFF701FB56E03448844209D10121F4
:1036E0004805FFF7F9FA00214FF40010FFF7F4FA4C
:1036F00049E02F48844208D101214020FFF7CCFA4D
:1037000000214020FFF7C8FA3DE02A48844208D152
:1037100001218020FFF7C0FA00218020FFF7BCFACA
:1037200031E02548844208D101218015FFF7B4FA21
:103730000021A015FFF7B0FA25E02048844209D106
:1037400001210804FFF7C8FA00214FF48030FFF789
:10375000C3FA18E01A48844209D101214804FFF74E
:10376000BBFA00214FF40030FFF7B6FA0BE0154822
:10377000844208D101218804FFF7AEFA00214FF4FA
:103780008020FFF7A9FA10BD002C01400004004082
:1037900000080040000C00400010004000140040F1
:1037A00000340140004C01400050014000540140F1
:1037B00000180040001C0040002000400040014074
:1037C00000440140004801400146888C704730B5F4
:1037D0000246002000230024158A05EA010395898A
:1037E00005EA010413B10CB1012000E0002030BD56
:1037F0001AB183890B43838102E083898B438381E0
:103800007047000070B5002400220023058C4FF69D
:10381000FF6635400584028C8388848B4FF68F7554
:103820002C404FF6FC752C400D882C434FF6FF556D
:103830002A400D894FF6FF7606EA05252A434D8872
:1038400006EA05252A43154DA84202D0144DA84288
:103850001DD14FF2FF752A404D894FF6FF7606EADB
:1038600005252A434FF6FF352A408D8806EA0525AF
:103870002A434EF6FF752B404DF6FF752B408D8980
:1038800006EA05152B43CD8906EA05152B438380EF
:103890008483CD888587028470BD0000002C0140A0
:1038A000003401400A460021818B4FF6F77319401E
:1038B000114381837047000070B50022002300246B
:1038C000058C4EF6FF7635400584038C8488828B08
:1038D00048F6FF752A404FF6FF452A400D884FF6FF
:1038E000FF7606EA05252A434DF6FF752B400D8924
:1038F00006EA05352B434D8806EA05352B430B4D6B
:10390000A84202D00A4DA84208D14BF6FF752C40C0
:103910008D894FF6FF7606EA85152C4384808283D5
:10392000CD88A0F84050038470BD0000002C0140F9
:10393000003401400A460021818B4FF2FF73194089
:103940004FF6FF7303EA0223194381837047818492
:1039500070470000002202881D4B98420ED01D4B7C
:1039600098420BD0B0F1804F08D01B4B984205D045
:103970001A4B984202D01A4B984204D14FF68F73DB
:103980001A404B881A43174B984207D0164B98425F
:1039900004D04FF6FF431A40CB881A4302808B882D
:1039A00083850B8803850A4B98420BD0094B9842BC
:1039B00008D00E4B984205D00D4B984202D00D4BCB
:1039C000984201D10B7A038601238382704700005D
:1039D000002C014000340140000400400008004079
:1039E000000C004000100040001400400040014066
:1039F000004401400048014021B1828942F4005254
:103A0000828104E082894DF6FF731A4082817047FB
:103A100000B585B001218803FFF74EF9012104208C
:103A2000FFF74AF94FF40070ADF8100018208DF838
:103A3000130003208DF8120004A91448FCF75EFE61
:103A40004FF48060ADF8100004208DF8130004A935
:103A50000E48FCF753FE4FF4E13000900020ADF823
:103A60000C000C20ADF80A000020ADF80800ADF8FD
:103A70000600ADF804006946054800F019F8012178
:103A80000348FFF7B9FF05B000BD00000008014082
:103A90000038014002460020B1F5007F00D100BF90
:103AA00013880B400BB1012000E00020704700009C
:103AB0002DE9F04786B005460E460024A24600BF19
:103AC000A1460027B08900B100BF2F462C8A4CF6D2
:103AD000FF700440F08804432C82AC894EF6F3104A
:103AE0000440B08831890843718908430443AC819C
:103AF000AC8A4FF6FF400440B0890443AC8201A871
:103B0000FFF7FAF81F48874202D1DDF810A001E064
:103B1000DDF80CA0A88900F4004040B10AEBCA000F
:103B200000EB0A1031684900B0FBF1F807E00AEB3E
:103B3000CA0000EB0A1031688900B0FBF1F864207C
:103B4000B8FBF0F004012009642101FB1089A88969
:103B500000F4004040B1322000EBC900B0FBF1F0AE
:103B600000F00700044308E0322000EB0910642154
:103B7000B0FBF1F000F00F0004432C8106B0BDE86B
:103B8000F087000000380140C1F3080282807047CE
:103B900000BFFEE71FB501214120FFF78DF820206F
:103BA000ADF80C0004208DF80F0003208DF80E00F6
:103BB00003A91648FCF7A2FD05210420FCF77EFDB1
:103BC0002020019000208DF808000C208DF80900BD
:103BD00001208DF80A0001A8FCF7D8FC2020FCF792
:103BE000B9FC4FF4C060FEF729FE17208DF80000E5
:103BF00000208DF8010003208DF8020001208DF8CF
:103C000003006846FEF7E2FD1FBD000000180140FA
:103C10003EB500254FF4A060FEF710FE00F010F94D
:103C2000FDF738F8FDF7FCF8FDF73AFA0546002DE8
:103C300077D000242CE000210846FDF753F800213E
:103C40000120FDF74FF8642000F01CF9012100204D
:103C5000FDF748F800210120FDF744F8642000F04A
:103C600011F900210846FDF73DF801210846FDF74E
:103C700039F8642000F006F901210020FDF732F840
:103C800001210846FDF72EF8642000F0FBF8641CC3
:103C9000032CD0DB002201210846FEF75FF8012843
:103CA00002D120A000F0A4F8264800F0A1F802E01C
:103CB00025A000F09DF8002006230122294900904C
:103CC0002948FDF7DFFD0028F2D028A000F090F889
:103CD0002CA000F08DF802E037A000F089F8002059
:103CE0000521CDE9000102903948038839480021B7
:103CF00002680120FEF77AF80028EDD000200521A7
:103D0000012242F2C223CDE9002102903148002174
:103D100002680120FEF76AF80028DDD02EA000F02E
:103D200067F83EBD0D0AD2D1C5E4D6C3574946490E
:103D3000B9A4D7F7D4DA535441C4A3CABDCFC20D36
:103D40000A000000E84000080D0AC7EBBDD3CDA86B
:103D5000C4BFB5C4C2B7D3C9C6F7B5E7D4B40D0A5A
:103D6000000000004C0000202C0000200D0AD2D1E1
:103D7000C1B4BDD3B5BDC4BFB5C4C2B7D3C9C6F7FE
:103D80000D0A00000D0AD5FDD4DAC1B4BDD3C4BFFD
:103D9000B5C44950A3BA3139322E3136382E3433B6
:103DA0002E31A3ACC4BFB5C4B6CBBFDABAC5A3BA73
:103DB000383839390D0A00000D0AC7EBB4F2BFAA32
:103DC000CAD6BBFAB6CBC5E4D6C30D0A00000000C4
:103DD0008C000020900000200D0AD2D1C1ACBDD3D0
:103DE000B5BDC4BFB5C4B7FECEF1C6F70D0A00001D
:103DF000014A024900F013B81D3F00085C01002091
:103E000002E008C8121F08C1002AFAD170477047A3
:103E1000002001E001C1121F002AFBD170472DE9EB
:103E2000F04116460F460446002503E03946B047E8
:103E3000641C6D1C20780028F8D12846BDE8F0816C
:103E400010B56FF00400FFF7FBFA0A4800680A4952
:103E5000B0FBF1F0094908700846007800EB40011A
:103E6000C1EBC0104FF6FF7101EAC00004490880A1
:103E700010BD00000000002000127A002800002081
:103E80002A0000200146114A12884A434FF0E023DD
:103E90005A6100229A611A46126942F001021A61BF
:103EA00000BF4FF0E022106900F001021AB100F4E7
:103EB0008032002AF5D04FF0E022126922F0010290
:103EC0004FF0E0231A6100229A6170472A00002017
:103ED0000146114A12784A434FF0E0235A6100220A
:103EE0009A611A46126942F001021A6100BF4FF04E
:103EF000E022106900F001021AB100F48032002AB9
:103F0000F5D04FF0E022126922F001024FF0E023D9
:103F10001A6100229A6170472800002070B504469B
:103F20000D46E1B20548FFF72FFE00BF8021034890
:103F3000FFF7B0FD0028F9D0204670BD00380140E1
:103F400030B5002214468356542B01D0532B00D198
:103F500084548B56542B01D0532B00D18C54835650
:103F600033B18D5625B1AB4202D1521CD2B2EAE731
:103F700080568956884202DD4FF0010030BD02D1E3
:103F80004FF0000030BD4FF0FF3030BD08B54FF4AA
:103F9000A060FEF753FC36208DF8000000208DF85D
:103FA00001008DF8020001208DF803006846FEF73D
:103FB0000DFC08BD0EB5FCF78BFD88E001A8FCF7F1
:103FC000C7FE00231A46042101A8FDF703FEFDF7F2
:103FD00058FA00287BD000200346012211460090A9
:103FE00002A8FDF741FC9DF8080030380A286CD281
:103FF000DFE800F0051F2225282B2E343A3D13E080
:1040000001A8FCF7A5FE00231A46042101A8FDF72C
:10401000E1FDFCF76FFC2D2802DDFCF70FFA03E051
:10402000FFF7F6F9FCF77CFEFDF72BFA0028E7D046
:104030004CE0FFF7EDF949E0FCF700FA46E0FCF749
:1040400015FA43E0FCF76CFE40E0FEF7BFFE3DE0F2
:104050000A20FFF73BFAFFF7DBF937E00820FFF70C
:1040600035FAFFF7D5F931E0FFF7D2F92EE029E074
:1040700017480078022818D100BF042015490860AD
:10408000202015494861086104201249091F086071
:10409000202011494861086100BF104A1189D08869
:1040A000FCF7CCFC00200A490870002003460122DE
:1040B0001146009002A8FDF7D7FB9DF808003528AF
:1040C00000D100E0D4E700BF00E000BF00BF75E70B
:1040D000410100201408014000100140960000201A
:1040E00041494B5BDB4100000D0AD5FDD4DAC1B478
:1040F000BDD3C4BFB5C4C2B7D3C9C6F7A3AC53536D
:104100004944A3BA6A696178696E67A3AC70617348
:1041100073776F7264A3BA6A6961686577616E7359
:10412000686978696E670D0A000000003139322E27
:104130003136382E302E3130300000005C4100081E
:10414000000000206001000002040008384200085E
:104150006001002048040000103E00089500A24ABB
:10416000045901020304060708095011010203045F
:10417000010203040607080902040608041E32307F
:10418000380B377169616F71697570757033C3224F
:10419000952C410008844001F02E11001246173F73
:1041A000185019031A78322629502C782A008820B2
:1041B000427F4D0963E064FF65206600670013F0ED
:1041C0000D810FC5142122FF23012434253C26A193
:1041D0002B006BAA13FF695D900A91019201930174
:1041E000945F95539611971A983D995A9A1E9B0081
:1041F0009C25A765A8659E81A6067E0C7F16802A51
:10420000814E8261836F847B8586868E879788A4A2
:1042100089AF8AC58BD78CE88D20A980AA80ACFF96
:104220003300229923034A00491347084B144C17C3
:0842300046050CD00EF54D000F
:0400000508000131BD
:00000001FF
